:10049800D6B8CEC6C3DCC2EBCBF800B1E0BAC53AD9
:1004A8002000D7B4CCAC3A2000D6B8CEC6BDE2CB3B
:1004B800F80020202020202020202020202000CEEE
:1004C800DED0A7D6B8CEC6002020202000202020CD
:1004D800202020202000C2BCC8EBB3C9B9A600B4B4
:1004E800E6B4A2CAA7B0DC00B2C9BCAFCAA7B0DCE8
:1004F80000B1E0BAC5B4EDCEF300C9BEB3FDB3C9CF
:10050800B9A600C9BEB3FDCAA7B0DC00C7E5BFD510
:10051800D6B8CEC600C7E5BFD5CAA7B0DC00202034
:10052800B9DCC0EDCFB5CDB3BDE7C3E620200020D0
:10053800202020C2BCC8EBD6B8CEC6202020200080
:1005480020202020C9BEB3FDD6B8CEC6202020204A
:100558000020202020D0DEB8C4C3DCC2EB2020203D
:100568002000203E3E2000202020202020202000A7
:1005780000202020202020202020202020202000B3
:100588000020202020202020202020200000C7EB51
:10059800CAE4C8EBB9DCC0EDC3DCC2EB3A2000000A
:1005A8003E3E2020C2BCC8EBD6B8CEC6003E3E2098
:1005B80020C9BEB3FDD6B8CEC600C7EBCAE4C8EBA7
:1005C800BEC9C3DCC2EB3A2000C3DCC2EBD0DEB844
:1005D800C4B3C9B9A600C7EBCDD7C9C6B1A3B9DCA6
:1005E800BAC300C3DCC2EBD0DEB8C4CAA7B0DC0013
:1005F800C7EBD4D9B4CECAE4C8EBD0C2C3DCC2EBD3
:1006080000C7EBCAE4C8EBD0C2C3DCC2EB3A200097
:10061800C3DCC2EBB4EDCEF300BDE2CBF8B3C9B98D
:10062800A6002000000000000000000000000000FC
:100638000000003000000018244242424242424278
:100648002418000031000000107010101010101055
:1006580010107C0000320000003C424242040408B2
:100668001020427E0000330000003C42420418047F
:100678000202424438000034000000040C14242410
:1006880044447E04041E0000350000007E404040C3
:10069800586402024244380000360000001C24401E
:1006A80040586442424224180000370000007E444B
:1006B8004408081010101010100000380000003C0A
:1006C8004242422418244242423C000039000000C1
:1006D8001824424242261A0202243800003A000036
:1006E80000000000181800000000181800002F0073
:1006F8000001020204040808101020204040002DC8
:1007080000000000000000007F0000000000000062
:100718002E000000000000000000000000606000E3
:10072800002A000000001010D63838D6101000003B
:1007380000003E00000040201008040204081020B9
:100748004000001001FFFFFFFF0100071300000039
:1007580000001B1001FFFFFFFF010007120000004F
:1007680000001A0C01FFFFFFFF0100030100050054
:10077800000D01FFFFFFFF01000402010008000D4A
:1007880001FFFFFFFF01000402020009001101FF41
:10079800FFFFFF0100080401000000650073000C62
:1007A80001FFFFFFFF01000305000900000F01FF23
:1007B800FFFFFF01000606020000000F001001FF06
:1007C800FFFFFF0100070C0000000100150C01FFEE
:0907D800FFFFFF0100030D0011F9
:100EA00060400000000000000000000000000000A2
:100EB0000000000000000000000000000000000032
:100EC0000000000000000000000000000000000022
:100ED0000000000000000000000000000000000012
:100EE00000000000012B00023C0000013F0002292D
:100EF000000001230001320002210000013E00C178
:100F000002043300000000043700000000042D003C
:0A0F1000000000052420202020002E
:1013CD00E4FDFCC3ED9FEC9E5015E4FBFA0BBB0056
:0F13DD00010AEB64784A70F50DBD00010C80E445
:0113EC0022DE
:1014EE0075A0FFC2B5D2B4D2B300E5A05480FFC23E
:0114FE00B33A
:0114FF0022CA
:0713AB007F341213B27F36FC
:1013B200AE071214EEEF70FAC2B5C2B4C2B30000A7
:0B13C2008EA00000D2B30000C2B322D6
:1012370075F011A4242BF582E5F03406F583E582D9
:0B1247002AF582E43583F583E493FF71
:10125200AE071214EEEF70FAD2B5C2B4C2B30000F8
:091262008EA0D2B30000C2B32239
:10131600BD0106EF2480FC8019BD0206EF2490FC77
:101326008010BD0306EF2488FC8007BD0404EF246B
:0713360098FCAF040213B2A2
:040F1B008B12AC0782
:100F1F00E4F514FBF515751611F517751811ED306D
:100F2F00E00479808006ED20E00279901213ABE4A3
:100F3F00FAEAC39516E49515502075F011EAA4242A
:100F4F002AF582E5F03406F583E493FFB512028AA1
:100F5F0014EFB51302AB020A80D7E4FAE92AFF12A5
:100F6F0013B2EDD39402EC4004248880022480FF56
:100F7F001213B2E514121237EB1212370ABA10DC41
:050F8F007F300213B2E7
:0D152E008B09751320120F1BAF090212521A
:0A0CF8007A0479D57BFF7D037F03AA
:080D02008D098B0A8A0B890C94
:100D0A008F0D8075AB0AAA0BA90C1207E1FF606E62
:100D1A00C3948040291212527401250CF50CE43553
:100D2A000BF50BAB0AFAA90C1207E1FF1212527467
:100D3A0001250CF50CE4350BF50B050D80C6AB0A45
:100D4A00AA0BA90C1207E1F50E7401250CF50CE4A7
:100D5A00350BF50BFAA90C1207E1F50F7401250CF6
:100D6A00F50CE4350BF50B850F13AB0EAD09AF0D82
:0E0D7A00120F1B050DAD09AF0D12131680866A
:010D88002248
:02119300A907AA
:10119500ED30E005750A808007ED20E003750A90C3
:1011A5001213ABE4FCE50A2CFF1213B2EDD3940243
:1011B500E940051324888004C3132480FF1213B269
:1011C500E930E005E4FF121252E4FAEAC39B500F3E
:1011D5003005047FFF8002E4FF1212520A80EC0CF6
:0811E500BC10C27F300213B2FE
:10147E00750901C2057B10AD09E4FF121193050930
:07148E00E509C3940540ECE1
:011495002234
:101448007F301213B27F301213B27F0C1213B27FA7
:0C145800011213B27F061213B202147EC0
:0F151000D2810000D28200000000C281000022C0
:0F151F00C2810000D28200000000D281000022B1
:0813ED001215107FA0121496E6
:1013F500D2820000D39281E509C394FA500405090D
:0614050080F2C28200002B
:01140B0022BE
:10149600C282E4FEEF33928100D2820000C282EF64
:0714A60025E0FF0EBE08ED7A
:0114AD00221C
:1014C600E4FED282EF25E0FDA281E4334DFFC28225
:0414D6000EBE08EE50
:0114DA0022EF
:10140C00AC071213EDAF041214961213F5AF0512BC
:0F141C0014961213F512151F7F027E000213CDD6
:02129C00AD079C
:10129E001213EDAF051214961213F51215107FA14D
:1012AE001214961213F51214C6A90712151F7F02F7
:0712BE007E001213CDAF0109
:0112C5002206
:100E1500EF1209BC0E4D110E61120E75140E8918D4
:100E25000E52210E66220E7A240E8E280E57410E82
:100E35006B420E7F440E93480E5C810E70820E84C9
:100E4500840E988800000E9B75090D8049E4F5090C
:100E5500804475090E803F75090F803A7509078032
:100E6500357509088030750909802B75090C8026B0
:100E75007509048021750905801C7509068017759B
:100E8500090B8012750901800D7509028008750925
:0A0E950003800375090AD200AF09BB
:010E9F002230
:081545007F647E2CDEFEDFFA5C
:01154D00227B
:1011ED007590F0E59054F064F0603C121545E59073
:1011FD0054F064F060317EFEEE30E42BF590E59016
:10120D0054F064F06019E59054F0440FFFE59054EC
:10121D00F0FDBDF0F8EFF4FFEEF42FFF020E15EE2A
:09122D0025E04401FE80D17F00A0
:011236002295
:041364007FF47E0193
:10136800E4FDFCC3ED9FEC9E5015E4FBFA0BBB00BB
:0F137800010AEB64784A70F50DBD00010C80E4AA
:011387002243
:0A153B00C2998F993099FDC29922E0
:0B09E200E02FF07B017A0079007D46D9
:0809ED008B0B8A0C890D8D0EA5
:1009F500E4F50FF510F511FEF512F513F514C20522
:100A0500C206C2077FEF12153B7F0112153BAB0BE8
:100A1500AA0CA90D1207E1FE750F02E50FC39E5042
:100A250017AB0BAA0CA90D850F827583001207FA67
:100A3500FF12153B050F80E3D205E4F53FF50F7472
:100A450000250FF582E43400F583E4F0050FE50F8A
:100A5500B440EC200503020B5AC205C206C207E4E6
:100A6500F50FF53CF53D209803020B43859910C21F
:100A750098E510B4EF1120060EE4F50F900000E59F
:100A850010F075130180DFE5136401702AE5106429
:100A950001600DE4F513C205C206C207F50F80C655
:100AA500751302050F7400250FF582E43400F583F4
:100AB500E510F0D20680AFE51364026003020B4334
:100AC50030067B050F7400250FF582E43400F583AD
:100AD500E510F0E50FC3940640107400250FF5826C
:100AE500E43400F583E02514F514E50FB408089007
:100AF5000008E0F512D207300744E5122408FFE4A8
:100B050033FEE50F6F7001EE703474FF250FF5822B
:100B1500E434FFF583E0FFC3E5149FFF7400250F60
:100B2500F582E43400F583E0FEC3EF9EF514EE652F
:100B3500146004C2058002D205E4F5138014D3E5E0
:100B45003D950EE53C94005009E50F943F50030296
:070B55000A6B850F3FA205AA
:010B5C002276
:10106F00AC077BFF7A07796B7D591209ED5052E57A
:10107F003F640B704C900009E07046EC6401701EE9
:10108F007BFF7A0779797D3C1209ED500EE53FB46D
:10109F000B09900009E070037F01227F0022EC64AE
:1010AF000270217BFF7A0779877D3C1209ED500E84
:1010BF00E53FB40B09900009E070037F01227F0028
:0710CF00227F00227F0022B6
:10126B00E4F5197F0112106FEF640170217BFF7A97
:10127B000779957D3C1209ED5011E53FB40F0C90A9
:10128B000009E0700690000BE0FF227FFF227F0039
:01129B002230
:1012C600E4FEEE9007B593FD74002EF582E434003B
:1012D600F583EDF00EBE10EA90000CEFF090000ED4
:0712E6001209E2500122C3CE
:0112ED0022DE
:1012EE00E4FEEE9007C593FD74002EF582E4340003
:1012FE00F583EDF00EBE10EA90000BEFF090000FAC
:07130E001209E2500122C3A5
:0113150022B5
:101500007BFF7A0779D57D321209ED500122C32283
:100F9400E4F509F50A7F0112106F8F09E509B40120
:100FA400028010E50970EE050AE50AC3942840E5BD
:100FB4007F0022E4F50A1213647F0212106F8F0976
:100FC400E5096401702A7BFF7A0779A77D28120955
:100FD400ED5010E53FB40B0B900009E07005FE7F67
:100FE4000180047E007F00EF4E7002FF227F012209
:100FF400E509B401C4050AE50AC3941940BB7F009E
:0110040022C9
:10000E00759850758921758BFD758DFDC2ABD28E9D
:0D001E00D2A9758A97758CBDD28CD2AF2205
:03000B000214DB01
:1014DB00C0E0758A97758CBD053DE53D7002053CF6
:0314EB00D0E0321C
:1014AE0075CB3C75CAB085CBCD85CACCE4F5C8F5F5
:0814BE00C9D2AFD2ADC2CA22AF
:03002B0002142B91
:10142B00C0E0C2CF052AE52A7002052964C8452908
:0D143B007008F529F52AD2B6C2CAD0E032F9
:101464007C64EF4E60131CEC60087D0A1DED60F691
:0914740080FAEF1F70EC1E80E904
:01147D00224C
:02138800AB07B1
:10138A00E4FAEAC39B5019C280C2B77F147E0012E6
:10139A001464D280D2B77F0F7E001214640A80E2EE
:0113AA002220
:10133D007BFF7A0479987D017F01120D027BFF7A84
:10134D000479A37D02E4FF120D027BFF7A0479AAD2
:07135D007D03E4FF020D0215
:100C390012126B8F2BE52BC394014007E52BD3943C
:100C4900054008E52BF46003020CF7E52BC394017A
:100C5900407BE52BD394055074AF2B7E007C037D3C
:100C6900E81208397E007F64CFCDCFCECCCE1208F2
:100C790039EF2430F524E52B75F06484E5F075F03F
:100C89000A842430F525E52B75F00A84E5F0243033
:100C9900F5267527207B007A0079247D027F0312CF
:100CA9000D027A0479B1120CFC7BFF7A0479BA7DC2
:100CB900047F01120D02E4F53AF539F538F537F5F7
:100CC9002CC204C2B6F529F52AD2CA800E7BFF7A56
:100CD9000479C7120CFE7F031213881213647BFF79
:0F0CE9007A0479D07D027F03120D02120CF822DB
:101138007BFF7A0479AA7D03E4FF120D02D3E5222E
:101148009400E52194004030D3E5229405E52194EC
:10115800005025120F94EF64017015AF221212C6C9
:101168007BFF50067A0479DE80147A0479E7800ED2
:101178007BFF7A0479F080067BFF7A0479F9120CF8
:0B118800FEE4F53EF521F522C2022234
:101005007BFF7A0479AA7D03E4FF120D02D3E52262
:101015009400E52194004020D3E5229405E5219430
:10102500005015AF221212EE7BFF50067A057902A9
:10103500802B7A05790B8025E52264E77004E5218C
:10104500640370131215007BFF50067A057914802E
:10105500047A05791D80067BFF7A0479F9120CFE66
:0A106500E4F53EF521F522C2022257
:1010D6007BFF7A0579267D01E4FF120D027BFF7AFC
:1010E6000579377D02E4FF120D027BFF7A05794808
:1010F6007D03E4FF120D027BFF7A0579597D04E436
:10110600FF120D02E53214601114601824027021DA
:101116007BFF7A05796A7D0280127BFF7A05796A00
:101126007D0380087BFF7A05796A7D04E4FF120D52
:02113600022293
:10002E00200003020497E52364026006E5236403BF
:10003E007051E53BC3940A504AE53EC394035043C6
:10004E00E53E701A7BFF7A05796F7D027F03120DF4
:10005E00027BFF7A0579797D03E4FF120D02E53EFE
:10006E002403FFE53B2430FB7D0212152EAE21AF9B
:10007E00227C007D0A120827EF253BF522EC3EF587
:10008E0021053EE523600764046003020124300469
:10009E0003020124E53BC3940A507B200106E523AD
:1000AE0064047030E52C700D7BFF7A0579897D0331
:1000BE007F01120D02300312E531D39401400BE59E
:1000CE002C04FFE53B2430FB8006E52C04FF7B2A45
:1000DE007D028008E52C04FF7B2A7D0412152EE498
:1000EE007F0AFEFDFCAB3AAA39A938A83712088E52
:1000FE00A804A905AA06AB07E4FCFDFEEB253BF51B
:10010E003AEE3AF539ED39F538EC38F537052CE598
:10011E002CB40602D204E53B640A7027E523702353
:10012E00200120F52CD201F53AF539F538F537C214
:10013E00047F011213B27BFF7A0579967D01E4FFED
:10014E00120D02E53B640F703EE523D3940140127D
:10015E00C203E4F5317F011213B212147E7523012E
:10016E008019E52370033001127F011213B2E4F5FA
:10017E002312133DC201E4F52CC20420B609D2B6F7
:10018E00E4F529F52AC2CAE53BB40B10E523B40108
:10019E000BE532700575320280021532E53BB40C68
:1001AE0013E523B4010EE532C394024005E4F532A3
:1001BE0080020532E53B640D7072E5236004640431
:1001CE00703EE52C603A152C200105E523B4040A97
:1001DE00E52C04FF7B207D028008E52C04FF7B20AC
:1001EE007D0412152EAF3AAE39AD38AC37E47B0A2A
:1001FE00FAF9F81209198F3A8E398D388C37C204F4
:10020E00E52364026005E523B40321E53E601D2469
:10021E0002FF7B207D0212152E153EAE21AF227CF1
:10022E00007D0A1208398E218F22C202E53B640E30
:10023E006003020495E5236401706B7F011213B213
:10024E00E5322402F523E4F53EF521F522C202C281
:10025E0004F52CF53AF539F538F537F530F52FF577
:10026E002EF52DE53214601214602624026003026E
:10027E0004957BFF7A0579A880067BFF7A0579B510
:10028E007D01E4FF120D027BFF7A0479A37D0280CB
:10029E000DD2037531017BFF7A0579C27D01E4FF32
:1002AE00120D0202049520040302048320030302AC
:1002BE0003E7E53164036003020376AF3AAE39AD6E
:1002CE0038AC37AB30AA2FA92EA82DC31209AB60BC
:1002DE0003020364853036852F35852E34852D3304
:1002EE007B107A27F9F8AF36AE35AD34AC33120940
:1002FE0019AD077FC812140CE47B107A27F9F8AFFA
:10030E0036AE35AD34AC33120919AC00AD01AE02C8
:10031E00AF03E47B64FAF9F8120919AD077FC9122D
:10032E00140CE47B64FAF9F8AF36AE35AD34AC3369
:10033E00120919AF03AD077FCA12140C7F011213F5
:10034E00B27BFF7A0579D17D017F01120D027BFF11
:10035E007A0579DE80067BFF7A0579EB7D037F01D6
:10036E00120D02E4F531C203E531B402207F011211
:10037E0013B27BFF7A0579F87D01E4FF120D028539
:10038E003A3085392F85382E85372D0531E5316484
:10039E00017046AF3AAE39AD38AC37AB36AA35A997
:1003AE0034A833C31209AB70137F011213B2053197
:1003BE007BFF7A0679097D01E4FF801A7BFF7A06BE
:1003CE0079187D037F02120D027531017BFF7A04CD
:1003DE0079BA7D027F01120D0230013CAF3AAE397F
:1003EE00AD38AC37AB36AA35A934A833C31209AB36
:1003FE00700C7523017F011213B2C201801A7BFFAC
:10040E007A0679187D037F02120D027BFF7A04793A
:10041E00BA7D027F01120D02E523704C200149AF17
:10042E003AAE39AD38AC37AB36AA35A934A833C39A
:10043E001209AB7BFF70127A067921120CFEC2B63E
:10044E00E4F529F52AD2CA800C7A067918120CFE28
:10045E007F031213887BFF7A0479BA7D047F011221
:10046E000D02121364120CF8E4F53AF539F538F56D
:10047E0037F52CC204E52364026005E523B40307B7
:0A048E00E53EB40302D202C20022D0
:100B5D001211ED8F3BE53BB40115E4FD7FC8121476
:100B6D000CE4FD7FC912140CE4FD7FCA12140C12A3
:100B7D00144812000E1214AE7FC812129CE48F3668
:100B8D00F535F534F5337FC912129CE4FCFDFEC03A
:100B9D0004C005C006C0077F64AB36AA35A934A8CA
:100BAD003312088ED003D002D001D000EF2BF536D2
:100BBD00EE3AF535ED39F534EC38F5337FCA1212CE
:100BCD009CE4FCFDFEC004C005C006C0077F64ABFD
:100BDD0036AA35A934A83312088ED003D002D0011D
:100BED00D000EF2BF536EE3AF535ED39F534EC381E
:100BFD00F53312133D05081211ED8F3B12002EE552
:100C0D0023B401051210D680ECE523B4020830029E
:100C1D00E412113880DFE523B403083002D7121037
:0C0C2D000580D2E52370CE2001CB80C9E9
:03000000020D8965
:0C0D8900787FE4F6D8FD75813F020DD0A4
:1007E100BB010689828A83E0225002E722BBFE0216
:0907F100E32289828A83E4932249
:1007FA00BB010CE58229F582E5833AF583E02250B4
:10080A0006E92582F8E622BBFE06E92582F8E222FD
:0D081A00E58229F582E5833AF583E4932217
:10082700EF8DF0A4A8F0CF8CF0A428CE8DF0A42EE5
:02083700FE229F
:10083900BC000BBE0029EF8DF084FFADF022E4CCA3
:10084900F875F008EF2FFFEE33FEEC33FCEE9DEC6C
:10085900984005FCEE9DFE0FD5F0E9E4CEFD22EDB2
:10086900F8F5F0EE8420D21CFEADF075F008EF2FFC
:10087900FFED33FD4007985006D5F0F222C398FDED
:050889000FD5F0EA228A
:10088E00E88FF0A4CC8BF0A42CFCE98EF0A42CFC09
:10089E008AF0EDA42CFCEA8EF0A4CDA8F08BF0A487
:1008AE002DCC3825F0FDE98FF0A42CCD35F0FCEBE6
:1008BE008EF0A4FEA9F0EB8FF0A4CFC5F02ECD39AB
:0F08CE00FEE43CFCEAA42DCE35F0FDE43CFC2218
:1008DD0075F008758200EF2FFFEE33FECD33CDCCD2
:1008ED0033CCC58233C5829BED9AEC99E582984055
:1008FD000CF582EE9BFEED9AFDEC99FC0FD5F0D632
:10090D00E4CEFBE4CDFAE4CCF9A88222B800C1B95B
:10091D000059BA002DEC8BF084CFCECDFCE5F0CB99
:10092D00F97818EF2FFFEE33FEED33FDEC33FCEBD2
:10093D0033FB10D703994004EB99FB0FD8E5E4F98D
:10094D00FA227818EF2FFFEE33FEED33FDEC33FC7A
:10095D00C933C910D7059BE99A4007EC9BFCE99A6E
:10096D00F90FD8E0E4C9FAE4CCFB2275F010EF2FB3
:10097D00FFEE33FEED33FDCC33CCC833C810D707B3
:10098D009BEC9AE899400AED9BFDEC9AFCE899F8EE
:0E099D000FD5F0DAE4CDFBE4CCFAE4C8F92281
:1009AB00EB9FF5F0EA9E42F0E99D42F0E89C45F0A2
:0109BB002219
:1009BC00D083D082F8E4937012740193700DA3A3CA
:1009CC0093F8740193F5828883E4737402936860DE
:0609DC00EFA3A3A380DFDE
:100D9500020B5DE493A3F8E493A34003F68001F20C
:100DA50008DFF48029E493A3F85407240CC8C3335F
:100DB500C4540F4420C8834004F456800146F6DF2E
:100DC500E4800B0102040810204080900EA0E47E10
:100DD500019360BCA3FF543F30E509541FFEE49323
:100DE500A360010ECF54C025E060A840B8E493A3EA
:100DF500FAE493A3F8E493A3C8C582C8CAC583CA15
:100E0500F0A3C8C582C8CAC583CADFE9DEE780BECC
:010F1A0000D6
:00000001FF
