:1004C400D6B8CEC6C3DCC2EBCBF800B1E0BAC53AAD
:1004D4002000D7B4CCAC3A2000D6B8CEC6BDE2CB0F
:1004E400F80020202020202020202020202000CEC2
:1004F400DED0A7D6B8CEC6002020202000202020A1
:10050400202020202000C2BCC8EBB3C9B9A600B487
:10051400E6B4A2CAA7B0DC00B2C9BCAFCAA7B0DCBB
:1005240000B1E0BAC5B4EDCEF300C9BEB3B3C9B9E6
:10053400A600C9BEB3CAA7B0DC00C7E5BFD5D6B80C
:10054400CEC600C7E5BFD5CAA7B0DC002020B9DC01
:10055400C0EDCFB5CDB3BDE7C3E6202000202020F9
:1005640020C2BCC8EBD6B8CEC62020202000202054
:100574002020C9BEB3D6B8CEC6202020200020201B
:100584002020D0DEB8C4C3DCC2EB20202020002011
:100594003E3E20002020202020202020202020203B
:1005A400202000202020202020202020202000C7E0
:1005B400EBCAE4C8EBB9DCC0EDC3DCC2EB3A200003
:1005C4003E3E2020C2BCC8EBD6B8CEC6003E3E207C
:1005D40020C9BEB3D6B8CEC600C7EBCAE4C8EBBECA
:1005E400C9C3DCC2EB3A2000C3DCC2EBD0DEB8C422
:1005F400B3C9B9A600C7EBCDD7C9C6B1A3B9DCBA94
:10060400C300C3DCC2EBD0DEB8C4CAA7B0DC00C7E9
:10061400EBD4D9B4CECAE4C8EBD0C2C3DCC2EB007D
:10062400C7EBCAE4C8EBD0C2C3DCC2EB3A2000C3B8
:10063400DCC2EBB4EDCEF300BDE2CBF8B3C9B9A68E
:10064400001001FFFFFFFF0100071300000000007E
:100654001B1001FFFFFFFF01000712000000000054
:100664001A0C01FFFFFFFF01000301000500000D4C
:1006740001FFFFFFFF01000402010008000D01FF5C
:10068400FFFFFF01000402020009001101FFFFFF48
:10069400FF0100080401000000650073000C01FF65
:1006A400FFFFFF01000305000900000F01FFFFFF2A
:1006B400FF01000606020000000F001001FFFFFF0B
:1006C400FF0100070C0000000100150C01FFFFFFF3
:0706D400FF0100030D0011FE
:100CFF002040230000000000000000000000000062
:100D0F0000000000000000000000000000000000D4
:100D1F0000000000000000000000000000000000C4
:100D2F0000000000000000000000000000000000B4
:100D3F00000000016B00027C0000017F00026900CF
:100D4F000001630001720002210000017E00C10258
:100D5F00047300000000047700000000046D000021
:090D6F0000000564202020200092
:10119E00E4FDFCC3ED9FEC9E5015E4FBFA0BBB0087
:0F11AE00010AEB64784A70F50DBD00010C80E476
:0111BD00220F
:1012C40075A0FFC2B5D2B4D2B300E5A05480FFC26A
:0112D400B366
:0112D50022F6
:10123700AE071212C4EF70FAC2B5C2B4C2B300004F
:0B1247008EA00000D2B30000C2B32252
:10126C00AE071212C4EF70FAD2B5C2B4C2B300000A
:09127C008EA0D2B30000C2B3221F
:100FFC00EDFB7A0064017006EF2480FC8022EB6428
:10100C00024A7006EF2490FC8016EB64034A7006CB
:10101C00EF2488FC800AEB64044A7004EF2498FCEB
:05102C00AF04021237C1
:0A130400A903120FFCAF0102126CE6
:0A0FC5007D037BFF7A0579017F03AD
:100FCF008B098A0A890B120FFCAB09AA0AA90B120B
:100FDF0006DBFF601712126C7401250BF50BE4355D
:0D0FEF000AF50A7F017E0012119E80DD22AE
:101285007F301212377F301212377F0C1212377FE0
:09129500011212377F0602123724
:0F12E600D2810000D28200000000C281000022ED
:0F12F500C2810000D28200000000D281000022DE
:081137001212E67FA012117DE7
:10113F00D2820000D39281C3E50994FA748094801F
:0A114F005004050980EEC282000082
:011159002273
:10117D00C282E4FEEEC39408748094805012EF3363
:10118D00928100D2820000C282EF25E0FF0E80E442
:01119D00222F
:1011FC00E4FEEEC39408748094805011D282EF25E3
:0D120C00E0FDA281E4334DFFC2820E80E5BB
:0112190022B2
:1011BE00AC07121137AF0412117D12113FAF051299
:0F11CE00117D12113F1212F57F027E0002119E59
:0210C200AD0778
:1010C400121137AF0512117D12113F1212E67FA1E2
:1010D40012117D12113F1211FCA9071212F57F02A1
:0710E4007E0012119EAF0116
:0110EB0022E2
:100C7400EF1208B60CAC110CC0120CD4140CE8180A
:100C84000CB1210CC5220CD9240CED280CB6410C56
:100C9400CA420CDE440CF2480CBB810CCF820CE33C
:100CA400840CF78800000CFA75090D8049E4F509F5
:100CB400804475090E803F75090F803A75090780D5
:100CC400357509088030750909802B75090C802653
:100CD4007509048021750905801C7509068017753E
:100CE400090B8012750901800D75090280087509C8
:0A0CF40003800375090AD200AF095E
:010CFE0022D3
:1011DD007F64EFD394007480948040127E2CEED304
:0E11ED0094007480948040031E80F31F80E401
:0111FB0022D1
:100F7A007590F0E59054F064F0603D1211DDE59053
:100F8A0054F064F060327EFEEE5410602B8E90E5D1
:100F9A009054F064F06019E59054F0440FFFE59026
:100FAA0054F064F070F8EFF4FFEEF42FFF020C74C3
:0A0FBA00EE25E04401FE80D07F0028
:010FC400220A
:041113007FF47E01E6
:10111700E4FDFCC3ED9FEC9E5015E4FBFA0BBB000E
:0F112700010AEB64784A70F50DBD00010C80E4FD
:011136002296
:0A130E00C2998F993099FDC299220F
:0408DC007BFF7D3CE5
:0808E0008B0C8A0D890E8D0FAF
:1008E800E4F510F511F512FEF513F514F515C2052A
:1008F800C206C2077FEF12130E7F0112130EAB0C54
:10090800AA0DA90E1206DBFE751002E510C39E5053
:1009180017AB0CAA0DA90E8510827583001206F478
:10092800FF12130E051080E3D205E4F57FF510D30E
:10093800E510943F74809480500B74232510F8E4DC
:10094800F6051080EA200503020A38C205C206C26D
:1009580007E4F510F57CF57D209803020A1D8599BA
:1009680011C298AF117E00EF64EF700D20060AF5F2
:100978001085112375140180DFAD147C00ED64012E
:100988007023EF64014E600DE4F514C205C206C27F
:1009980007F51080C3751402051074232510F8A6F6
:1009A80011D20680B3ED64024C706A3006670510F8
:1009B80074232510F8A611AF107E00C3EF940674B7
:1009C800809480400A74232510F8E62515F515EF64
:1009D80064084E7005852B13D207300738E51324B9
:1009E80008FFE433FEEF65107001EE7028742225CD
:1009F80010F8E6FFC3E5159FFF74232510F8E6FEFF
:100A0800C3EF9EF515EE65156004C2058002D20598
:100A1800E4F5148018D3E57D950FE57C9400500D1E
:100A2800E510943F74809480500302096085107F1C
:020A3800A20515
:010A3A002299
:100F1D008F0B7BFF7A0679657D591208E05048E505
:100F2D007F640B7042E52C703EE50B640170197AFD
:100F3D000679731208DC500DE57F640B7007E52C04
:100F4D0070037F01227F0022E50B6402701C7A067C
:100F5D0079811208DC500DE57F640B7007E52C706C
:0D0F6D00037F01227F00227F00227F0022EF
:10109500E4F5097F01120F1DEF6401701D7BFF7AD6
:1010A50006798F7D3C1208E0500DE57F640F7007CF
:0C10B500E52C7003AF2E227FFF227F008D
:0110C100220C
:10103100E4FEEEC3941074809480500FEE9006AFDE
:1010410093FD74232EF8A6050E80E78F2FEF25312F
:10105100F5317B007A0079237D461208E0500122A8
:01106100C3CB
:01106200226B
:10106300E4FEEEC3941074809480500FEE9006BF9C
:1010730093FD74232EF8A6050E80E78F2EEF2532FD
:10108300F5327B007A0079237D461208E050012275
:01109300C399
:011094002239
:1012D6007BFF7A0679CF7D321208E0500122C322C5
:100D7900E4F509F50A7F01120F1D8F09EF6401607F
:100D890013EF70F1050AC3E50A9428748094804032
:100D9900E47F0022E4F50A1211137F02120F1D8F5E
:100DA90009EF640170297BFF7A0679A17D28120871
:100DB900E0500FE57F640B7009E52C7005FE7F019B
:100DC90080047E007F00EF4E7002FF227F0122E542
:100DD90009640170C5050AC3E50A941974809480F1
:040DE90040B87F008F
:010DED0022E3
:10000E00759850758921758BFD758DFDC2ABD28E9D
:0D001E00D2A9758A97758CBDD28CD2AF2205
:03000B0002129E40
:10129E00C0E0758A97758CBD057DE57D7002057C75
:0312AE00D0E0325B
:1012B10075CB3C75CAB085CBCD85CACCD2AFD2AD8A
:0312C100C2CA227C
:03002B0002121AA4
:10121A00C0E0C2CF056AE56A7002056964C845691B
:0D122A007008F569F56AD2B6C2CAD0E0328C
:101252007C64EF4E60131CEC60087D0A1DED60F6A5
:0912620080FAEF1F70EC1E80E918
:01126B002260
:02115A00AB07E1
:10115C00E4FAEAC39B5019C280C2B77F147E001216
:10116C001252D280D2B77F0F7E001212520A80E246
:01117C002250
:1010EC007BFF7A0479C47D017F01120FCF7BFF7ADD
:1010FC000479CF7D02E4FF120FCF7BFF7A0479D6FF
:07110C007D03E4FF020FCF99
:100A3B001210958F6B7E00C3EF94017480948040ED
:100A4B000AD3EF9414748094804008EFF44E600343
:100A5B00020B16C3EF9401EE648094805003020ADC
:100A6B00F1D3EF9414EE64809480507AAF6B7E00D8
:100A7B007C037DE81207337E007F64CFCDCFCECCD5
:100A8B00CE120733EF2430F564E56B75F06484E523
:100A9B00F075F00A842430F565E56B75F00A84E592
:100AAB00F02430F5667567207B007A0079647D024F
:100ABB007F03120FCF7BFF7A0479DD7D037F031257
:100ACB000FCF7BFF7A0479E67D047F01120FCFE411
:100ADB00F57AF579F578F577F56CC204C2B6F56958
:100AEB00F56AD2CA80127BFF7A0479F37D037F0308
:100AFB00120FCF7F0312115A1211137BFF7A047955
:0C0B0B00FC7D027F03120FCF120FC522E9
:100EBE007BFF7A0479D67D03E4FF120FCFD3E522B0
:100ECE009400E52194004030D3E5229414E521945A
:100EDE00005025120D79EF64017015AF22121031FA
:100EEE007BFF50067A05790A80147A057913800EF5
:100EFE007BFF7A05791C80067BFF7A0579257D03B9
:0F0F0E007F03120FCFE4F57EF521F522C20222F8
:100DEE007BFF7A0479D67D03E4FF120FCFD3E52281
:100DFE009400E52194004020D3E5229414E521943B
:100E0E00005015AF221210637BFF50067A05792E23
:100E1E00802B7A0579368025E52264E77004E5217A
:100E2E00640370131212D67BFF50067A05793E804A
:100E3E00047A05794780067BFF7A0579257D037F45
:0E0E4E0003120FCFE4F57EF521F522C2022239
:100E5C007BFF7A0579507D01E4FF120FCF7BFF7A7F
:100E6C000579617D02E4FF120FCF7BFF7A05797261
:100E7C007D03E4FF120FCF7BFF7A0579827D04E4BA
:100E8C00FF120FCFE5721460111460182402702148
:100E9C007BFF7A0579937D0280127BFF7A0579932B
:100EAC007D0380087BFF7A0579937D04E4FF120FA4
:020EBC00CF2243
:10002E002000030204C3AF63EF64026005EF6403B4
:10003E007053C3E57B940A748094805048AF7E7EE3
:10004E0000C3EF940374809480503AEF70127D02D7
:10005E00120FC77BFF7A0579987D03E4FF120FCF4D
:10006E00E57E2403FFE57B2430FB7D02121304AEF4
:10007E0021AF227C007D0A120721EF257BF522ECB1
:10008E003EF521057EAF63EF600764046003020155
:10009E0033300403020133C3E57B940A74809480E9
:1000AE004003020133200106E56364047034E56CFD
:1000BE00700D7BFF7A0579A77D037F01120FCF307C
:1000CE000316D3E571940174809480400BE56C04A3
:1000DE00FFE57B2430FB8006E56C04FF7B2A7D0266
:1000EE008008E56C04FF7B2A7D04121304E47F0A6A
:1000FE00FEFDFCAB7AAA79A978A877120788A80426
:10010E00A905AA06AB07E4FCFDFEEB257BF57AEE0E
:10011E003AF579ED39F578EC38F577056CE56C64E0
:10012E00067002D204E57B640A7027E56370232013
:10013E000120F56CD201F57AF579F578F577C204E0
:10014E007F011212377BFF7A0579B37D01E4FF122E
:10015E000FCFE57B640F7042E563FD7C00D3940105
:10016E0074809480400FC203E4F5717F0112123740
:10017E007563018019ED4C70033001127F0112126C
:10018E0037E4F5631210ECC201E4F56CC20420B63C
:10019E0009D2B6E4F569F56AC2CAAF7B7E00EF6498
:1001AE000B7011E5636401700BE5727005757202D8
:1001BE0080021572EF640C4E7018E56364017012C4
:1001CE00C3E5729402748094804005E4F572800257
:1001DE000572E57B640D7075AF63EF6004640470A7
:1001EE003FE56C603B156C200106E5636404700A04
:1001FE00E56C04FF7B207D028008E56C04FF7B200C
:10020E007D04121304AF7AAE79AD78AC77E47B0A35
:10021E00FAF9F81208138F7A8E798D788C77C204DA
:10022E00AF63EF64026005EF64037021E57E601D2D
:10023E002402FF7B207D02121304157EAE21AF2215
:10024E007C007D0A1207338E218F22C202E57B6469
:10025E000E60030204C1E5636401706B7F0112122C
:10026E0037E5722402F563E4F57EF521F522C2022C
:10027E00C204F56CF57AF579F578F577F570F56FCA
:10028E00F56EF56DE572146012146026240260039B
:10029E000204C17BFF7A0579C480067BFF7A05795B
:1002AE00D17D01E4FF120FCF7BFF7A0479CF7D025F
:1002BE00800DD2037571017BFF7A0579DD7D01E436
:1002CE00FF120FCF0204C12004030204AD2003036A
:1002DE00020409E57164036003020397AF7AAE79F5
:1002EE00AD78AC77AB70AA6FA96EA86DC31208A5D6
:1002FE006003020385857076856F75856E74856DD6
:10030E00737B107A27F9F8AF76AE75AD74AC7312B5
:10031E000813AD077FC81211BEE47B107A27F9F8D7
:10032E00AF76AE75AD74AC73120813AC00AD01AE02
:10033E0002AF03E47B64FAF9F8120813AD077FC924
:10034E001211BEE47B64FAF9F8AF76AE75AD74ACFB
:10035E0073120813AF03AD077FCA1211BE7F0112CD
:10036E0012377BFF7A0579EC7D017F01120FCF7B6F
:10037E00FF7A0579F980067BFF7A0679067D037F81
:10038E0001120FCFE4F571C203E571640270207F94
:10039E00011212377BFF7A0679137D01E4FF120FEB
:1003AE00CF857A7085796F85786E85776D0571E565
:1003BE007164017046AF7AAE79AD78AC77AB76AA40
:1003CE0075A974A873C31208A570137F0112123792
:1003DE0005717BFF7A0679247D01E4FF801A7BFF8D
:1003EE007A0679337D037F02120FCF7571017BFF81
:1003FE007A0479E67D027F01120FCF30013CAF7A8D
:10040E00AE79AD78AC77AB76AA75A974A873C31222
:10041E0008A5700C7563017F01121237C201801A94
:10042E007BFF7A0679337D037F02120FCF7BFF7A33
:10043E000479E67D027F01120FCFE563705420012F
:10044E0051AF7AAE79AD78AC77AB76AA75A974A8B0
:10045E0073C31208A57BFF70167A06793C7D037F65
:10046E0003120FCFC2B6E4F569F56AD2CA80107ACC
:10047E000679337D037F03120FCF7F0312115A7B50
:10048E00FF7A0479E67D047F01120FCF1211131249
:10049E000FC5E4F57AF579F578F577F56CC204AF0A
:1004AE0063EF64026005EF64037008E57E64037019
:0604BE0002D202C200227E
:100B170012128512000E1212B17FC81210C2E48F92
:100B270076F575F574F5737FC91210C2E4FCFDFE06
:100B3700C004C005C006C0077F64AB76AA75A97458
:100B4700A873120788D003D002D001D000EF2BF58D
:100B570076EE3AF575ED39F574EC38F5737FCA1210
:100B670010C2E4FCFDFEC004C005C006C0077F64D8
:100B7700AB76AA75A974A873120788D003D002D0E0
:100B870001D000EF2BF576EE3AF575ED39F574ECFB
:100B970038F5731210EC0508120F7A8F7B12002EAE
:100BA700E56364017005120E5C80EBE56364027017
:100BB700083002E2120EBE80DDE563640370083080
:100BC70002D4120DEE80CFE56370CB2001C8C3E5D8
:100BD7000894967480948040BDE4F508120A3B801F
:010BE700B558
:03000000020BE808
:0C0BE800787FE4F6D8FD75817F020C2FA9
:1006DB00BB010689828A83E0225002E722BBFE021D
:0906EB00E32289828A83E4932250
:1006F400BB010CE58229F582E5833AF583E02250BB
:1007040006E92582F8E622BBFE06E92582F8E22204
:0D071400E58229F582E5833AF583E493221E
:10072100EF8DF0A4A8F0CF8CF0A428CE8DF0A42EEC
:02073100FE22A6
:10073300BC000BBE0029EF8DF084FFADF022E4CCAA
:10074300F875F008EF2FFFEE33FEEC33FCEE9DEC73
:10075300984005FCEE9DFE0FD5F0E9E4CEFD22EDB9
:10076300F8F5F0EE8420D21CFEADF075F008EF2F03
:10077300FFED33FD4007985006D5F0F222C398FDF4
:050783000FD5F0EA2291
:10078800E88FF0A4CC8BF0A42CFCE98EF0A42CFC10
:100798008AF0EDA42CFCEA8EF0A4CDA8F08BF0A48E
:1007A8002DCC3825F0FDE98FF0A42CCD35F0FCEBED
:1007B8008EF0A4FEA9F0EB8FF0A4CFC5F02ECD39B2
:0F07C800FEE43CFCEAA42DCE35F0FDE43CFC221F
:1007D70075F008758200EF2FFFEE33FECD33CDCCD9
:1007E70033CCC58233C5829BED9AEC99E58298405C
:1007F7000CF582EE9BFEED9AFDEC99FC0FD5F0D639
:10080700E4CEFBE4CDFAE4CCF9A88222B800C1B962
:100817000059BA002DEC8BF084CFCECDFCE5F0CBA0
:10082700F97818EF2FFFEE33FEED33FDEC33FCEBD9
:1008370033FB10D703994004EB99FB0FD8E5E4F994
:10084700FA227818EF2FFFEE33FEED33FDEC33FC81
:10085700C933C910D7059BE99A4007EC9BFCE99A75
:10086700F90FD8E0E4C9FAE4CCFB2275F010EF2FBA
:10087700FFEE33FEED33FDCC33CCC833C810D707BA
:100887009BEC9AE899400AED9BFDEC9AFCE899F8F5
:0E0897000FD5F0DAE4CDFBE4CCFAE4C8F92288
:1008A500EB9FF5F0EA9E42F0E99D42F0E89C45F0A9
:0108B5002220
:1008B600D083D082F8E4937012740193700DA3A3D1
:1008C60093F8740193F5828883E4737402936860E5
:0608D600EFA3A3A380DFE5
:100BF400020B17E493A3F8E493A34003F68001F2F5
:100C040008DFF48029E493A3F85407240CC8C33301
:100C1400C4540F4420C8834004F456800146F6DFD0
:100C2400E4800B0102040810204080900CFFE47E55
:100C3400019360BCA3FF543F30E509541FFEE493C5
:100C4400A360010ECF54C025E060A840B8E493A38C
:100C5400FAE493A3F8E493A3C8C582C8CAC583CAB7
:100C6400F0A3C8C582C8CAC583CADFE9DEE780BE6F
:010D7800007A
:00000001FF
